:020000040000FA
:1000000080250020150400001D0400001F040000CE
:10001000210400002304000025040000000000006B
:1000200000000000000000000000000027040000A5
:1000300029040000000000002B0400002D04000033
:100040002F04000019070000690A00002F040000B7
:100050002F0400002F040000550500002F040000AD
:100060002F0400002F0400002F0400002F040000C4
:100070002F0400002F0400002F0400002F040000B4
:100080002F0400002F0400002F0400002F040000A4
:10009000750700002F0400002F0400002F0400004B
:1000A0002F0400002F0400002F0400002F04000084
:1000B0002F0400002F0400000000000000000000DA
:1000C0002F0400002F0400002F0400002F04000064
:1000D0002F0400002F0400002F0400000000000087
:1000E0000000000000000000000000000000000010
:1000F0000000000000000000000000000000000000
:1001000000000000000000000000000000000000EF
:1001100000000000000000000000000000000000DF
:10040000DFF80CD000F074F80048004785110000B8
:10041000802500200648804706480047FEE7FEE7A3
:10042000FEE7FEE7FEE7FEE7FEE7FEE7FEE7FEE7A4
:10043000CD0700000104000040EA01039B0703D040
:1004400009E008C9121F08C0042AFAD203E011F813
:10045000013B00F8013B521EF9D27047D2B201E0D5
:1004600000F8012B491EFBD270470022F6E710B5B9
:1004700013460A4604461946FFF7F0FF204610BD12
:10048000421C10F8011B0029FBD1801A70472DE98E
:10049000F05F0546002092469B4688460646814608
:1004A00040241BE0284641464746224600F041F8DA
:1004B00053465A46C01A914110D311461846224657
:1004C00000F028F82D1A67EB01084F46224601205C
:1004D000002100F01FF817EB00094E41201EA4F187
:1004E0000104DFDC484631462A464346BDE8F09F1A
:1004F000064C074D06E0E06840F0010394E8070071
:1005000098471034AC42F6D3FFF77EFFBC2B0000B7
:10051000DC2B0000202A04DB203A00FA02F1002044
:1005200070479140C2F1200320FA03F31943904031
:100530007047202A04DB203A21FA02F0002170479C
:1005400021FA02F3D040C2F120029140084319463B
:10055000704700002DE9FC5F0025DFF83891A846C0
:100560004FF4807601242F46304601F0F3FA38B17B
:10057000D9F80403204203D0304601F0E1FA2543C4
:10058000361D64007F1CB6B2082FEDD34FF4BE7445
:10059000204601F0DFFA38B1204601F0D1FA3E489A
:1005A00045F00045D0F800803C4E15F0FF0F15D007
:1005B000012700242F420DD009EB8401D1F810054A
:1005C000D1F81015C0F3042056F82420C1F30141DE
:1005D00002B190477F00641C082CEBD3002D56DA43
:1005E00000200190401E4CE0701910F8501F90F947
:1005F000000021F0C004401C38D0012000FA04FAA9
:100600001AEA090F32D04FEA911B204600F022FD72
:1006100056F82000009010B9BBF1030F26D15146C7
:10062000BBF1030F02D1019808430190A00000F133
:10063000A040D0F800071AEA080FC0F3014002D02A
:10064000022802D012E0032810D1BBF1030F07D11A
:1006500002281AD00221204601F063FA7F1CFFB263
:10066000009818B1009A5946204690476D1C042DF9
:10067000BAD3002F0BD008480068404507D0804609
:100680000198002781463D46AEE70321E3E7BDE838
:10069000FC9F000000600040100500506C0000202E
:1006A00000F01F02012191404009800000F1E0208C
:1006B000C0F88012704700F01F02012191404009EC
:1006C000800000F1E020C0F88011704700F01F02A8
:1006D000012191404009800000F1E020C0F80011A4
:1006E000704700F01F02012191404009800000F195
:1006F000E020C0F8001270474907090E002806DA0A
:1007000000F00F0000F1E02080F8141D704700F1A8
:10071000E02080F80014704770B5144CD4F8000144
:10072000002628B1D4F80403C00701D0C4F8006142
:10073000D4F80C010E4D40B1D4F80403000704D5E1
:10074000C4F80C61E86800B18047D4F810010028B3
:100750000BD0D4F80403C00607D5C4F81061A8680C
:10076000002802D0BDE87040004770BD0010004076
:100770002C0000207CB5144C206A019020780028C1
:1007800021D00120FFF797FF6568002666600120F1
:10079000FFF79CFFA169002915D0E80703D08DF869
:1007A000006068468847A80705D501208DF800003D
:1007B000A16968468847680705D502208DF80000C2
:1007C000A169684688477CBD2C000020F0B5984898
:1007D0000023021D01780125101D4FF080560629C7
:1007E00007D11478240704D10478C4F30314032C2C
:1007F00002D0062904D00FE08F4F8E4C7C670EE0AC
:100800001478240708D10478C4F30314032C06D009
:10081000042C04D0052C02D0062907D00EE0D6F80F
:100820004442864FC4F342343C6002E0147824070B
:1008300004D10478C4F30314032C02D0062906D093
:1008400011E07F4C276827F0807727600EE014784E
:10085000240708D10478C4F30314032C06D0042C15
:1008600004D0052C02D006290AD011E04FF08044B4
:10087000C4F80C31C4F81031704C241F236002E01E
:100880001478240704D10478C4F30314032C02D091
:10089000062905D00CE0694F032464373C600AE068
:1008A0001478240704D10478C4F30314032C02D071
:1008B00006290DD014E0634F05243C60614C783468
:1008C0002560604C083423603F243F1D3C6002E0FB
:1008D0001478240704D10478C4F30314052C02D03F
:1008E000062957D068E058490968584A11605649A6
:1008F000091D0968121D1160534908310968121D4C
:10090000116051490C310968121D11604E491031B6
:100910000968121D11604C4914310968121D1160DB
:10092000494918310968494A2032116046491C3149
:100930000968121D1160444920310968121D1160B7
:10094000414924310968121D11603F492831096865
:10095000121D11603C492C310968121D11603A4981
:1009600030310968394A40321160374934310968F9
:10097000121D1160344938310968121D1160324965
:100980003C310968121D11602F4940310968121D60
:10099000116002E0117809070ED10078C0F303104E
:1009A000032803D0042801D0052805D1D6F8580221
:1009B000274900F04F00086021487438016841F46D
:1009C00070010160BFF34F8FBFF36F8F4FF01021A5
:1009D000D1F80002002803DBD1F80402002822DA53
:1009E0001C4A15601C480468002CFCD01524C1F872
:1009F00000420568002DFCD0C1F8044201680029BE
:100A0000FCD0136001680029FCD0BFF34F8F0C4865
:100A1000F0380168114A01F4E06111430160BFF34D
:100A20004F8F00BFFDE70F490D480860F0BD000083
:100A3000E00F00F00DF0ADBA00C007403C050040EB
:100A4000FCED00E0105600400404001020C50040FA
:100A5000E40E004004E5014000E401400400FA0512
:100A60000090D003680000200448017F044800295A
:100A7000024901D001F075BF01F0E4BEC4000020BE
:100A8000002000400FB4084B10B504A902AA039837
:100A900000F01CF8044602A9002000F048FA2046A5
:100AA00010BC5DF814FB00002F0F000002E008C826
:100AB000121F08C1002AFAD170477047002001E0D8
:100AC00001C1121F002AFBD1704700002DE9FF4F22
:100AD0008DB00F460546002606E025280BD0DDE93F
:100AE0000F1290476D1C761C28780028F5D111B0A4
:100AF0003046BDE8F08F0024A246A1460122EC4911
:100B000000E0044315F8013F203B02FA03F00842DD
:100B1000F7D128782A2810D06FF02F022878A0F17A
:100B20003001092914D80AEB8A0102EB410144F093
:100B3000020400EB010A6D1CF0E701CF5FEA000A36
:100B400003D544F40054CAF1000A44F002046D1CB9
:100B500028782E2817D115F8010F44F004042A280C
:100B60000ED06FF02F022878A0F1300109290AD8A1
:100B700009EB890102EB410100EB01096D1CF2E771
:100B800057F8049B6D1C28786C280FD006DC4C2885
:100B900017D068280DD06A2814D104E0742810D02A
:100BA0007A280FD10DE044F400140AE044F48014D4
:100BB00001E044F440146978814202D104F58014C4
:100BC0006D1C6D1C2A786E2A1FD00CDC632A31D074
:100BD00004DC002A8BD0582A11D1A3E0642A68D003
:100BE000692A0CD165E0732A2ED004DC6F2A73D0F9
:100BF000702A04D19BE0752A6FD0782A6ED01046F7
:100C0000DDE90F129047761C50E1C4F30250022830
:100C100006D0032809D0042801CF09D0066045E199
:100C200001CFF117C0E9006140E101CF06803DE14D
:100C300006703BE117F8040B8DF8000000208DF8DA
:100C40000100EB46012003E057F804BB4FF0FF30F2
:100C500061074FF0000102D40DE008F10101884660
:100C600049450FDA8045F8DB1BF808100029F4D15C
:100C700008E008F1010188468142FADB1BF8081000
:100C80000029F6D1DDE90F23AAEB080081462146B1
:100C900000F036F9304400EB080604E0DDE90F12FD
:100CA0001BF8010B9047B8F10108F7D221464846DE
:100CB000F7E00A21C4F302534FF0000B0891022B16
:100CC00004D001CFC117032B09D00AE0FF1D27F084
:100CD0000707F7E8020108E032E01FE020E000B279
:100CE000C117042B01D140B2C117031E71F10003DB
:100CF00007DA4FF0000CD0EB0C006CEB01012D2358
:100D000002E0230504D52B238DF82430012303E0D2
:100D1000E30701D02023F7E7984658E00A2110E0C6
:100D200010210EE010204FF0000B08900CE0102175
:100D30004FF0000B44F004044FF00809089103E061
:100D400008214FF0000B0891C4F30253022B04D08A
:100D500001CF0021032B06D006E0FF1D27F0070777
:100D6000F7E8020103E080B2042B00D1C0B24FF0DB
:100D7000000823072BD5702A07D0DDF820C08CF09F
:100D8000100C5CEA0B0C05D00EE040238DF82430EB
:100D9000012308E050EA010306D030238DF8243007
:100DA0008DF8252002239846DDF820C08CF0080C31
:100DB0005CEA0B0C0BD150EA010301D1630706D5A5
:100DC00030238DF824304FF00108A9F10109582A89
:100DD00004D038A20B9208AA0A920BE03AA2F9E7D3
:100DE0005B46089AFFF753FB0B9B9B5C0A9A521ECB
:100DF0000A92137050EA0102F2D10A98ADEB00009A
:100E000000F1200B600702D524F4803401E04FF09C
:100E10000109D94502DDA9EB0B0000E0002000EB41
:100E20000B0141440890AAEB010AE00306D4DDE976
:100E30000F232146504600F063F806444FF00009A6
:100E400008E009A911F80900DDE90F12904709F13E
:100E50000109761CC145F4DBE0030CD5DDE90F2365
:100E60002146504600F04CF8064404E0DDE90F123C
:100E700030209047761C0899481E08900029F5DC20
:100E800008E00A980A990078491C0A91DDE90F12D6
:100E90009047761CBBF10001ABF1010BF1DC214660
:100EA0005046DDE90F2300F019F806446D1C1BE6DF
:100EB0000928010030313233343536373839616230
:100EC00063646566000000003031323334353637F4
:100ED0003839414243444546000000002DE9F041C5
:100EE000044600251E461746880404D405E039460A
:100EF0002020B0476D1C641EF9D52846BDE8F0815E
:100F00002DE9F041044600251E469046C80301D550
:100F1000302700E02027880404D505E04146384604
:100F2000B0476D1C641EF9D52846BDE8F0810A68FB
:100F3000531C0B6010707047006890FAA0F000BA64
:100F400000BA704708A1012000F07CFFBFF34F8F6B
:100F50000B4801680B4A01F4E06111430160BFF3E3
:100F60004F8F00BFFDE700004150505F4552524F88
:100F7000523A4552524F523A466174616C0D0A0022
:100F80000CED00E00400FA050EB500210091CDE95A
:100F900001106A4644F20100FFF7D4FF0EBD0000C5
:100FA0002DE9F04105460878214F012606FA00F0A8
:100FB0000C463860086800F0AAFD0021606800F067
:100FC0009DFD28791B4901EB4010A169007F002895
:100FD0002868C0F8241519D0607D217D2A6808434F
:100FE000C2F86C0518E00021A06800F087FD207BA6
:100FF00086403E60E06800F08AFDD4E9021228686D
:10100000C0F80825C0F81015BDE8F081607D227D8C
:1010100029681043C1F86C05D4E900122868C0F8AB
:101020000C15C0F81425207D0128DCD0ECE7000069
:1010300008050050C4000020002901DA0020704794
:1010400002681144016001207047006890FAA0F026
:1010500000BA70470249084490F930007047000018
:101060006C00002010B50F4C40F21310C4F80002C1
:101070000E490D480969C07C88470E490C48086034
:101080000021C4F810110120C4F81000D4F8102178
:10109000002AFBD0C4F8101140F21711C4F8001256
:1010A000606010BD001000404C0200202C000020A9
:1010B0002E050020041500404FF080400021C0F8AC
:1010C00000110121C0F80010D0F800110029FBD058
:1010D00070470000002001225FF0030102FA00F3D4
:1010E00013F4F01F04D0830003F1A043C3F80017EA
:1010F000401C2028F2D304494FF4F010086000206F
:10110000091D0860704700000805005070B50E46C4
:101110000446007918494FF4A27501EB4010017F95
:101120002068A1B14FF4887100F0C7FE4FF49071B0
:10113000206800F0C2FE4FF49271206800F0BDFEFE
:101140002946206800F0B9FE0C49206809E04FF4F8
:101150008E7100F0A1FE2946206800F09DFE08492E
:101160002068C0F80413206800F079F83146BDE823
:10117000704000F058B80000C400002010030200C6
:1011800080000200FFF7A6FF002000F06FFEFFF7CF
:1011900093FF01F0DFFA01F0F7FA042001F08EF876
:1011A00040F28A2001F0ACF80B490E2001F0B6F8AD
:1011B00008B1FFF7E9FE09A1032000F043FE00BFDC
:1011C00000F04BFE30380928FAD800EB80004000D0
:1011D00001F0C4F9F4E70000CD2300004150503A7B
:1011E000494E464F3A20456E68616E6365642053F0
:1011F000686F636B42757273742042726F616463CF
:101200006173746572204578616D706C650D0A00BC
:1012100000F01F02012191404009800000F1E02010
:10122000C0F8801170474907090E002806DA00F05F
:101230000F0202F1E02282F8141D03E000F1E02227
:1012400082F8001400F01F02012191404009800043
:1012500000F1E020C0F88012C0F800117047000BC8
:1012600040B270472DE9F04105460079164F90468F
:1012700007EB40140E46E07E10B10820BDE8F08177
:10128000707F20772846FFF78BFE5FEA08006060DA
:101290003169216003D0317F2846FFF737FF287975
:1012A00007EB4010007F0028286801D0082100E0EB
:1012B0000421C0F800150020E0752076A0750121FA
:1012C000E176A076DAE70000C40000202DE9F041C5
:1012D0000379284D05EB431494F81CC0BCF1000FB2
:1012E00007D04FF40053B3EB114F02D01020BDE8EC
:1012F000F081D4F804E000234FF404764FF4017732
:10130000BEF1000F09D0BCF1000FD0F800C002D030
:10131000CCF8086301E0CCF8087394F817C0BCF16E
:10132000000F14D0237E73B1616851B10179006858
:1013300005EB4111097F11B1C0F8046301E0C0F869
:1013400004731120D3E721610123227604E0E275C2
:101350000026E16066762676047905EB4414247F46
:101360001CB1BDE8F04100F05BB8BDE8F04100F011
:1013700003B80000C40000202DE9F05F04460079A6
:10138000264901EB4015A87E184302D1204601F002
:1013900090F868680028206806D04FF40171C0F802
:1013A00004130020BDE8F09F4FF4A276314600F010
:1013B00073FDB1464FF4927A4FF4847B5146206816
:1013C00000F065FD06465946206800F060FD804645
:1013D0004946206800F05BFD074648EA07003043B5
:1013E000ECD056EA070007D12946206801F03CF806
:1013F000E87D697E8842E1D80020E8750EB10320BF
:10140000D0E70FB10F20CDE7A97E01200029216888
:1014100001D00860C5E74860C3E70000C4000020B1
:101420002DE9F047884604464FF4887599461646DC
:101430000068294600F041FD4FF4A2773946206844
:1014400000F03BFD2068C0F83485C0F8386520689E
:10145000B9F1000F13D0D0F8001241F02001C0F80C
:1014600000122079194E06EB4010406850B12068F8
:101470004FF40471C0F804130020BDE8F087012187
:101480000160EEE7A946B8464FF4927A49462068D3
:1014900000F00EFD07464146206800F009FD0546B4
:1014A0005146206800F004FD014647EA0500084364
:1014B000ECD02279002006EB4212D07509B103204E
:1014C000DBE7002DD8D00F20D7E70000C4000020B4
:1014D0002DE9F047054600793E4C0E4604EB4013DB
:1014E000187F38B14FF40050B0EB164F02D01020E7
:1014F000BDE8F087284600F06FF808B11120F7E743
:101500009A7500279E609F8228794FF0010804EBAE
:1015100040143E46207F0028286825D04FF490795B
:10152000494600F0CAFC4FF4AC7A5146286800F0F6
:10153000C4FC2868A17DA268C0F84425C0F84815FD
:101540002868C0F808806068F0B94946286800F04B
:10155000AFFC80465146286800F0AAFC58EA00011A
:10156000F3D058BBA7750FE04FF48E7A514600F0C8
:1015700093FC2868C0F808802146286801F022F909
:1015800061684FF4807089B13046B1E751462868F0
:1015900000F07DFC10B9A08A4845F7D1A08A4845E3
:1015A00005D02146286801F00DF900E08146A08AA7
:1015B000A17D8842EAD3A08A484501D10F26D1E710
:1015C0005146286800F063FC0028F9D02868C0F86C
:1015D0000C80C7E7C40000200079044901EB4010EB
:1015E000807D002800D0012070470000C40000204A
:1015F00070B5044600791149002601EB40152068BA
:101600002A7FC0F80065686888B1207901EB401036
:10161000007F0028206801D0094901E008498C3981
:10162000C0F808132068FFF71AFEFFF7F1FD204607
:1016300000F01AFEEE766E6070BD0000C40000205F
:10164000100302000D4910B54FF4705008600C49AA
:101650000020487000F0FAFE24210A48FEF705FF3A
:10166000084809210A38FEF700FF1420FFF723F885
:1016700005490320C1F80002002010BD08F5014013
:101680002C0000205A0500200010004010B5017801
:10169000124C002089B101291DD002291CD110480B
:1016A00000F0B0F8002817D16268002A14D00C4866
:1016B00010F8051BBDE8104010472070FFF7C2FF6F
:1016C0000649012008314870084600F00BF8BDE8D3
:1016D000104000F02BB9207010BD00000C0000205D
:1016E0002502002070B5050076D03C4C207818B15A
:1016F000FFF7A8FF00286DD16868A061182229466D
:101700003748FEF799FE0025656024213548FEF72D
:10171000ACFE344809210A38FEF7A7FE01F0C2F9F1
:1017200000F094FE2E490020183101F5947200BF9C
:1017300000EB800303EB40130B4442F82030401CC5
:101740000828F5DB2849002001F5947200EB80039E
:1017500003EB40130B4442F82030401C0828F5DB13
:10176000224904200860214808380560204840F2DA
:101770000221C0F80012204A1E491160111D0860A4
:101780001C48001D091D08601948001D091D08603E
:10179000091D1A4808601748F038091D08601748E5
:1017A000001D091D0860091D154808600C4E707C5D
:1017B00000F003010120FEF79FFFB07C00F0030161
:1017C0001420FEF799FF1420FEF780FF65700120BA
:1017D0002070002070BDFFE70E20FBE72C000020EA
:1017E0004C0200205A050020B803002010A500403C
:1017F00000A000400011004060F5014040A1004001
:101800000010004070B505461A48007860B36DB30B
:10181000194CA06A60B30120FEF74DFF606A54F8CE
:1018200020100A782A7054F820104978697054F80A
:1018300020108978A97054F820100979297154F87A
:101840002010681D491DFEF7F7FD606A401C6062AC
:10185000082801D300206062A06A401EA062012017
:10186000FEF734FF002070BD082070BD0E2070BD53
:10187000052070BD2C000020E0040020074910B5B1
:101880004A780AB1112010BD30B100688862012089
:1018900001F0E0F8002010BD0E2010BD2C0000204B
:1018A000074910B54A780AB1112010BD30B100685F
:1018B000C862022001F0CEF8002010BD0E2010BD3D
:1018C0002C00002010B50C460F49497809B11120B1
:1018D00010BD18B1092C03D3072010BD0E2010BD78
:1018E0000146094822463030FEF7A6FD0648C4F1FD
:1018F00008022830FF210474D1408174042001F0D3
:10190000A9F8002010BD00002C00002006494978ED
:1019100009B1112070477D2801D90720704702497D
:101920002831C874002070472C00002070B5194879
:10193000417809B1112070BD174C4FF0FF31C4F848
:1019400008130025C4F810511449816040F21711A2
:10195000C4F800121021C4F80413042141700D488A
:101960000F4A2830817C11600D49C07C28390860FD
:10197000091F0C48086001209434FEF791FE0120F5
:10198000FEF7A4FE25676567E567012044F8900C23
:10199000002070BD2C00002000100040C91E000077
:1019A000301500402E050020074810B5407808B1DA
:1019B000112010BD0548806A18B100F041FE0020DA
:1019C00010BD4FF4807010BD2C0000208C0300204F
:1019D0000D4A5078042802D040F2011070470B499C
:1019E0000020C1F80002431EC1F808339060C1F81E
:1019F00010010123C1F81030D1F81031002BFBD0B9
:101A000050700020704700002C00002000100040A3
:101A10002DE9F041284F0646387840B156B130786C
:101A200068B120280BD8254D297829B109E0082074
:101A3000BDE8F0810E20FBE7E97C884201D909204E
:101A4000F6E71F4CA06A082801D30420F0E7687865
:101A500018B9F07808B1287D18B30120FEF72BFEE5
:101A6000206A2522314654F82000FEF7E5FC727802
:101A70001448815C491C01F003018154206A54F828
:101A80002020401C08281171206201D30020206210
:101A9000A06A401CA0620120FEF718FE687810B111
:101AA00007E00620C4E7287C18B9787808B900F068
:101AB000C7FD0020BCE700002C0000204C020020E5
:101AC0008C0300205005002030B541EA4201DDE9D9
:101AD000034541EA8301800041EA042100F1A0406E
:101AE00041EA0541C0F8001730BD1CB50021009146
:101AF0000B4601220191FFF7E7FF1CBD1CB5002238
:101B00000B46009211460192FFF7DEFF1CBD1CB58B
:101B1000002100910B46012201911146FFF7D4FFED
:101B20001CBD800000F5E06000F1A040026822F4D6
:101B300040320260026842EA0141016070470000E1
:101B4000034908B50844002101600068009008BD01
:101B50000060004002494058012800D00020704732
:101B60000060004038B50B4C607828B1012269460E
:101B7000201DFFF7ABFB0AE00020A0700548012202
:101B80006946001DFFF7A2FBA0780028FCD09DF855
:101B9000000038BD0000002000487047111C000004
:101BA00030B5184C054689B0207828B16078854258
:101BB00002D1002009B030BD202213496846FEF74B
:101BC0003BFC00208DF814000620009008200190B6
:101BD00005200390072002904FF0EB700690094813
:101BE000001DFFF705FD0DB1002200E0074A054882
:101BF0006946001DFFF736FB0028DBD1012020706D
:101C00006570D6E7000000209C2B000035280000FE
:101C10002DE9F04FC1B00D00DDF82CB14D984FF01B
:101C200000011C4690460BEB000A409101D00A26A9
:101C300000E0002600F0C4FC002873D16F46BCB958
:101C4000409840AA3918284600F0A4FD002869D021
:101C50004046FEF715FCC22800D9C2200546409830
:101C60002A4638444146FEF7E7FB40982844409016
:101C70004FF020094098821931320DEB020168447F
:101C8000002202E000F8019B521CB242FAD3002766
:101C9000544508D300F8019B00F8019B00F8019B14
:101CA00001F8019B26E05C4502D24A9A125D03E0EE
:101CB0004C9AA4EB0B03D25C84460125AB0022FABC
:101CC00003F808F00F03092B01D9373300E0303354
:101CD000C5F101086D1E0CF80830EFD20CF10200BE
:101CE000A2F1200300F8019B5E2B00D92E2201F8FF
:101CF000012B641C7F1C102FCAD30D220A700A22EC
:101D00004A7080F8009040988119433168464091AC
:101D100000F05CFC30B100F053FC18B9002040909A
:101D20005445A7D341B02046BDE8F08F2DE9F043DC
:101D3000C5B000251C46904689464C9F449500F04E
:101D40003FFCB0BB449804AE311844AA484600F0AA
:101D500021FD00282ED0072F22D2DFE807F0041241
:101D6000192E384451004046FEF78AFB0546449838
:101D70002918FF2914D830442A464146FEF75CFB57
:101D80000EE04498226830444146FEF77BFE06E0B0
:101D9000D4E90023449841463044FEF773FE0546DB
:101DA000294644A8FFF748F918B14499B1F5807F56
:101DB00033D9002045B0BDE8F083A0680090D4E995
:101DC0000023449841463044FEF75CFEE7E7D4E93F
:101DD0000201CDE90001D4E9002344984146304492
:101DE000FEF750FEDBE704F1080007C88DE80700A6
:101DF000D4E90023449841463044FEF743FECEE741
:101E000004F108000FC88DE80F00D4E900234498BE
:101E100041463044FEF736FEC1E704A800F0D6FB89
:101E2000C8E70000004870472D1D000038B50D467A
:101E30000093034B00215C6913462A46A04738BD36
:101E4000E401002000231A46FFF7F0BF08B5012384
:101E500000926A46FFF7EAFF08BDFFF783BE000065
:101E6000014AC2E905017047E401002070B5012074
:101E7000FFF796FE040008D1FFF7D4FF0546FFF7F1
:101E80008BFE01462846FFF7EBFF204670BD405809
:101E9000002800D00120704708B500224250405869
:101EA000009008BDD0F80403084000D0012070471E
:101EB0004058002800D00120704708B50022425049
:101EC0004058009008BD00002DE9F05F5448002202
:101ED0000127006818B15348806A082803D3BDE879
:101EE000F05FFFF7BFB8DFF8389109F10809D9F8BA
:101EF00000004C4909F104037A311C6801EB8006AB
:101F00002C3935884878AC4205D1B478B4EB500F01
:101F100001D1012200274008B07018688B4630803C
:101F20004148424C017D31B19BF80110C90702D0F4
:101F3000FFF798F85EE03E4B40F21B11C3F8001229
:101F40003A49384D007809694FF0000A2C35A0B3A2
:101F5000012844D1A5F5C070836A5FEA030E2DD035
:101F6000436A50F823C09CF80180D9F800C0E045CE
:101F700024D196F803C0BCF1010F0DD162B95B1CEE
:101F80004362082B01D3C0F824A0AEF101028262A3
:101F9000626842F0010262600122F270426A50F807
:101FA000220060610078884761690878287011F81C
:101FB000052BA81CFEF740FA06E009E086F803A00E
:101FC0000020884785F800A09BF80100687006E0B3
:101FD000002088479BF80000287085F801A00520A4
:101FE0006070D9F80000134908601248283805606D
:101FF0001148A060002F10D0B178D9F80000C0B20D
:1020000000F068FA002808D0606840F004006060C2
:10201000BDE8F05F1420FEF764BBBDE8F09F000050
:1020200000140040E00400204C0200202C0000209E
:10203000001000402C1500403D200000094910B55B
:1020400040F21710C1F80002084C07482169C07C13
:1020500088470849064808600748A0600420607067
:1020600010BD0000001000404C0200202C00002099
:102070002E05002004150040C91E000070B5164A48
:1020800040F21310C2F80002144C606A1449086050
:10209000144B091D9889823808601348012140F8C3
:1020A0000C1F0021C0F83411C0F838110F4D4FF447
:1020B000E050286050142D1D2860C2F80C111878CB
:1020C00010B92169002088470A49094808600A4870
:1020D000A0600320607070BD001000402C00002044
:1020E00040A500404C02002000A0004004F5014043
:1020F0002E050020041500403921000010B50C4CBD
:10210000606840F00100606000F07AFB0948806A76
:1021100030B11420FEF7E5FABDE8104000F090BAA7
:1021200000206070BDE810401420FEF7DABA00000D
:102130002C0000208C0300202DE9F04740494FF48B
:10214000E05008603F4AD2F80C31DFF8FC900027DD
:102150003E4CB9F80E004E14DFF8F4800125DBB3D5
:102160003C4B1B68C3B365600E60D8F8041041F0A7
:102170000101C8F80410D8F81C10401A401CC8F817
:10218000200000F03DFB99F8000080B109F2E22048
:10219000007860B1304800680021C0B200F09AF9C0
:1021A00028B1D8F8040040F00400C8F804002B4817
:1021B000806A50B199F81000012806D01420FEF76B
:1021C00090FABDE8F04700F03BBA88F80170BDE82E
:1021D000F0471420FEF785BAD8F81CC0BCF1010CFA
:1021E000C8F81CC00BD265600E60401CC8F8200007
:1021F000D8F8040040F00200C8F80400E5E740F217
:102200001B111746C2F80012D8F81400D8F81010A5
:102210000078884710491248283908601148C8F8E2
:102220000800022088F8010025600548001F0660AC
:10223000D4F84401002800D03D60BDE8F0870000DC
:1022400008F50140001000404C02002000A00040B2
:102250002C000020001400402C1500408C030020AE
:102260000C0500207D20000070B502464FF0FF30C5
:102270001168D1F80C35D1F81465D1F80855D1F8AA
:102280001045C1F80C05C1F814051168C1F808051E
:10229000C1F810051846FFF728FC3046FFF725FC6B
:1022A000601C02D02046FFF720FC681C04D02846A2
:1022B000BDE87040FFF719BC70BD00000B4941EA52
:1022C00000200B4908600C490A480860091D0B48AA
:1022D000086008481430091D086008483038091D96
:1022E0000860054903200C3908607047030013009B
:1022F0001065004040A1014010F5014060600040C1
:1023000038B144F62061884200D3481E0249086073
:1023100070470120FAE7000040A501407FB505465F
:1023200024A00E460068009023A024A1006803901A
:10233000D1E90001234ACDE90101FA20D07400203F
:10234000107401241470147254701F485060147576
:102350009DF8010068408DF801009DF8020080EAB8
:1023600015208DF802001046FFF7BCF900281ED199
:102370006846FFF783FA002819D103A8FFF790FAFF
:10238000002814D1082101A8FFF79CFA00280ED1DB
:1023900005F03F00001DFFF7B9FA002807D1FFF74D
:1023A000C5FA002803D1074908394E604C7004B0C3
:1023B00070BD0000C5E7E73AC2C2C2C2E7C2C3C4EB
:1023C000C5C6C7C8140000208D1600000278012A77
:1023D0000DD103290BD3817840786FF02F0230386C
:1023E00000EB800002EB4000084400F005B97047A4
:1023F0002DE9F041134D04460E46687800281ED0A2
:1024000028780028FCD1FFF7E3FAFFF71BF90D4805
:10241000002708304770FFF765F9FFF7C5FA214636
:10242000094C3246601DFEF707F8267067700126DA
:10243000E6702046FFF7ECFA00B92E700120BDE8E7
:10244000F08100000C00002000020020054900205F
:1024500008624862886201F5AA710862486288626F
:10246000704700008C03002070B50546C87D0C46FF
:1024700000284FF4847128460AD0FFF70DFDD5F8E7
:102480001805627EE1688854607E401C607670BDED
:10249000FFF702FDD5F8180570BD1FB501238DF8B3
:1024A00000308DF808100192D0E90012684690477C
:1024B0001FBD10B5044600684FF49271FFF7ECFCA5
:1024C0004FF484712068FFF7E7FC20680121016068
:1024D00010BD00002DE9F0411E4C07460E46A06AD3
:1024E000082835D2A4F52572204613780025006A05
:1024F00002F2E221012B03D0537843B1D27C02E0F7
:102500000A78202A24D854F820301A7002E054F8AF
:102510002020157054F82000891C10F8052BFDF7B9
:102520008BFF206A54F820104F700B49096854F84B
:102530002020917054F82010401C08280E71206251
:1025400000D32562A06A401CA0620120BDE8F08192
:102550000020FBE7E00400204815004038B50446A1
:102560000CA0006800900A20B4FBF0F130318DF827
:102570000110B4FBF0F100FB114030308DF8020087
:1025800003216846FFF734FF224603A10320FFF72B
:102590005DFC38BD010000004150503A494E464FA5
:1025A0003A2053656E64696E6720736572766F209A
:1025B0007570646174653A2025690D0A0000000099
:1025C0000148FFF709B800000400002070B50D466F
:1025D0000A46014601240648FDF72EFFEAB20449E7
:1025E0000448FEF775FF00B10024204670BD0000CE
:1025F000E40000200400002010B50446024608A1B3
:102600000320FFF723FC40F2A46044436420B4FBA2
:10261000F0F0BDE8104000F28A20FFF771BE000024
:102620004150503A494E464F3A2053656E642064FB
:10263000757479206379636C653A2025690D0A0009
:102640002DE9F05F3D4C4FF00109C4F820903C4863
:10265000DFF8F0B0A0F5A076416A3B4D4FF0110ACB
:1026600050F821106161307806F5307810B10128FA
:1026700041D110E0087821698847616908F10200BA
:102680000A7988F80020002288F8012011F8052B2B
:10269000FDF7D2FE15E0C87800B3307DF0B1002719
:1026A0000A7888F800200A7987F0010343EA420299
:1026B00088F8012011F8052B08F10200FDF7BCFE97
:1026C00077B140F21B10C5F80002C5F804A3F089E9
:1026D000E0610220C4F808B060700CE00127DFE779
:1026E00040F21310C5F800021020C5F80403174883
:1026F000A06084F801906069154A417811604078C3
:102700004C4609FA00F0111D08600C4810492830A9
:102710002439C07C0860091FC1F800800120FDF742
:10272000BFFF0120FDF7D2FF0020C5F80401C5F866
:102730000801C5F810012C60BDE8F09F2C000020B6
:102740008C0300207D20000000100040FD200000D0
:102750002C1500400A49022008600949042008316C
:10276000086008492020C1F8000205490020091F1F
:102770000860034944F620604C310860704700004F
:1027800008A5014000A001400149012008607047F0
:1027900000A0014010B5144602004FF001000AD01D
:1027A0000846126805A1FEF76DF901462046BDE80E
:1027B0001040FEF741BC0021216010BD5B25303880
:1027C000645D000070B50C4605464FF48E71FFF74E
:1027D00063FBA18AA068415CA08A401CA082C5F866
:1027E0001C1570BD1FB500228DF800208DF8081053
:1027F000816801918275D0E90012684690471FBD3B
:1028000010B50B4CA06A002811D00120FDF753FF32
:10281000A06A401EA062606A401C6062082801D362
:1028200000206062BDE810400120FDF74FBF10BDE1
:102830008C0300200078012801D10149887070477D
:10284000000000202DE9FF470C4605464FF40071BB
:10285000FFF728FB01274FF40178002618B34FF447
:10286000927949462846FFF712FBE0B149462846CF
:10287000FFF712FBC5F80883A07E00B96F60022045
:102880008DF80000D5F88004C5F880040390E07D41
:102890008DF80800E0680190E6752676D4E900120C
:1028A0006846904727E004212846FFF7FBFA10B35B
:1028B0004FF484712846FFF7EAFAE0B12146284632
:1028C000FFF7D2FDE07D617E884214D1207E38B1D1
:1028D000617EE268E0752069E0602676667607E052
:1028E000A07E00B96F60C5F80883E675617EE26876
:1028F0002046FFF7D2FD4FF48E7841462846FFF779
:10290000C6FA88B1A08AA17D884204D22146284611
:10291000FFF758FF08E041462846FFF7BDFAA17DC2
:1029200011B12046FFF75EFF4FF4A27841462846DA
:10293000FFF7ADFA002812D041462846FFF7ACFA5F
:10294000A07E00B12F60E07D002808D0E675617E92
:10295000E26804B02046BDE8F047FFF79EBDBDE841
:10296000FF872DE9FF410C464FF492770546394623
:10297000FFF79EFA0026C0B139462846FFF79DFAB8
:1029800002208DF80000D5F88004C5F8800403907B
:10299000D5F83C058DF80800E0680190E6752676CC
:1029A000D4E900126846904724E04FF4887739460E
:1029B0002846FFF77DFAE8B139462846FFF77DFA49
:1029C000D5F83C05C1B2E07D884213D1207E60B1CC
:1029D000E268D5F8000220F02000C5F80002207E51
:1029E000E0752069E060267601E0E675E268204641
:1029F000FFF753FD4FF4A27739462846FFF758FA00
:102A000068B139462846FFF758FAE07D38B1E675D7
:102A1000D5F83C05E268C1B22046FFF73EFD4FF411
:102A2000907631462846FFF743FA00280FD031460A
:102A30002846FFF742FAA07D002808D0D5F84C05BB
:102A400004B0C1B22046BDE8F041FFF7CBBEBDE8FF
:102A5000FF81000010B50446C00704D00F48FEF700
:102A60006BFA0F490860A00706D50C48001DFEF759
:102A700063FA0B49091D086060070DD50748083047
:102A8000FEF7E3FA06490831086004480C30FEF707
:102A9000DCFA03490C31086010BD0000540000202E
:102AA0001C15004010B500F043F81B481B49027A82
:102AB0000A601B4940235AB1012A04D0022A04D0DB
:102AC000032A06D104E0302200E0FA224A6200E044
:102AD0004B6202781AB1012A03D1124A00E0124A6D
:102AE0000A610E4B427A24331A600C4B2C331C1FA4
:102AF000022A02D0012A05D009E04FF6FF721A60BF
:102B00000A4A03E0FF221A6040F207122260C07CEA
:102B10000969BDE8104008474C020020101500402C
:102B20002C000020712B0000452B0000211001001B
:102B300002480349807A0860704700004C02002078
:102B40000C150040084A074911600849497C491E94
:102B5000090441EA0021014341F08070111D086021
:102B600070470000000101001415004054000020CF
:102B700007490648086007480749407C401E41EA6B
:102B800000400349091D086070470000060003006B
:102B9000141500405400002020000001FFFFFFFF3B
:102BA000FFFFFFFFFFFFFFFFFFFFFFFF0000000031
:102BB000000000000000D60106010000DC2B000030
:102BC000000000206C000000AC0A0000482C00004F
:102BD0006C00002014250000BC0A0000000000006A
:102BE0000020004000000000000000000000000085
:102BF000010000000000000001020000FA000300D4
:102C000000010220000000000000000000000000A1
:102C100000000000000000000000000000000000B4
:102C200000000000000000000000000000000000A4
:102C3000E7E7E7E7C2C2C2C2E7C2C3C4C5C6C7C8A6
:082C40000805FF020090D0031B
:0400000500000401F2
:00000001FF
